:100000000C9464000C948C000C948C000C943207BB
:100010000C9432070C9432070C948C000C948C00D6
:100020000C948C000C948C000C948C000C948C0020
:100030000C948C000C948C000C948C000C948C0010
:100040000C94170B0C948C000C945F0E0C94910E76
:100050000C948C000C948C000C948C000C948C00F0
:100060000C948C000C948C0000000008000201002D
:100070000003040700000000000000000102040863
:100080001020408001020408102001020408102002
:10009000040404040404040402020202020203032E
:1000A00003030303000000002300260029000000D2
:1000B0000000250028002B0000000000240027007D
:1000C0002A00B004C10ED10411241FBECFEFD8E026
:1000D000DEBFCDBF12E0A0E0B1E0ECE3F8E202C089
:1000E00005900D92AA36B107D9F723E0AAE6B2E04F
:1000F00001C01D92A23BB207E1F710E0C6ECD0E0D0
:1001000004C02297FE010E94DF13C23CD107C9F749
:100110000E9449110C9411140C940000CF92DF92AC
:10012000EF92FF920F931F93E82FF92F05C0015014
:1001300011092109310961F1908196239417B9F3CE
:1001400005C0015011092109310911F1908196234F
:100150009413F7CFC12CD12CE12CF12C0AC08FEFD6
:10016000C81AD80AE80AF80A0C151D052E053F051D
:1001700079F080818623841791F36C2D7D2D8E2D4F
:100180009F2D1F910F91FF90EF90DF90CF900895DA
:1001900060E070E080E090E01F910F91FF90EF90A1
:1001A000DF90CF90089520E044E064E18AE692E099
:1001B0000E948B0567E385EB92E00E94E40840E82B
:1001C00055E260E070E082E892E00E94350826E0A7
:1001D00040E855E260E070E085E193E00E94FD0DAB
:1001E00060E081E00E94560C60E089E00E94560CBD
:1001F00060E08EE00E94560C61E08AE00E94560C9E
:1002000060E08AE00E94560C61E08DE00E94560C8E
:1002100061E084E00E94560C60E08DE00E94560C84
:1002200060E084E00E94560C41E060E08AE692E0E3
:100230000E9471056BE071E08AE692E00E94420F35
:1002400042E060E08AE692E00E9471056EE171E0B2
:100250008AE692E00E94420F43E060E08AE692E084
:100260000E94710560E371E08AE692E00E94420F0D
:1002700068EE73E080E090E00E94900B8AE692E0E6
:100280000C946A0568E371E082E892E00E94420FF4
:1002900063E471E082E892E00E944F0F6BE571E049
:1002A00082E892E00E944F0F6AE182E892E00E94A9
:1002B000610F6AE185E193E00E94610F82E892E0BC
:1002C0000C944B0F68E371E082E892E00E94420FC9
:1002D00063E471E082E892E00E944F0F60E771E012
:1002E00082E892E00E944F0F60E771E085E193E0C1
:1002F0000E944F0F6AE182E892E00E94610F6AE17A
:1003000085E193E00E94610F82E892E00C944B0F2C
:1003100068E371E082E892E00E94420F63E471E0DA
:1003200082E892E00E944F0F61E871E082E892E07B
:100330000E944F0F61E871E085E193E00E94420F57
:100340006AE182E892E00E94610F6AE185E193E050
:100350000E94610F82E892E00C944B0F68E371E019
:1003600082E892E00E94420F63E471E082E892E04A
:100370000E944F0F65E971E082E892E00E944F0F02
:1003800065EA71E085E193E00E944F0F6AE182E83F
:1003900092E00E94610F6AE185E193E00E94610FA3
:1003A00082E892E00C944B0F8AE692E00E946A0584
:1003B00040E060E08AE692E00E94710567EB71E040
:1003C0008AE692E00E94420F6091A3027091A4021B
:1003D0004AE050E08AE692E00E940C1064EC71E082
:1003E0008AE692E00E94420F41E060E08AE692E0F5
:1003F0000E94710566EC71E08AE692E00E94420F6D
:100400006091A1027091A2024AE050E08AE692E077
:100410000E940C1064EC71E08AE692E00E94420FA8
:1004200042E060E08AE692E00E94710566ED71E0CC
:100430008AE692E00E94420F65EE71E08AE692E061
:100440000E94420F43E060E08AE692E00E9471055C
:1004500068EE71E08AE692E00E94420F65EE71E07C
:100460008AE692E00C94420F8AE692E00E946A05C6
:1004700040E060E08AE692E00E94710567EB71E07F
:100480008AE692E00E94420F6091A3027091A4025A
:100490004AE050E08AE692E00E940C1064EC71E0C1
:1004A0008AE692E00E94420F41E060E08AE692E034
:1004B0000E94710566EC71E08AE692E00E94420FAC
:1004C0006091A1027091A2024AE050E08AE692E0B7
:1004D0000E940C1064EC71E08AE692E00E94420FE8
:1004E00042E060E08AE692E00E94710566ED71E00C
:1004F0008AE692E00E94420F66EF71E08AE692E09F
:100500000E94420F43E060E08AE692E00E9471059B
:1005100068EE71E08AE692E00E94420F65EE71E0BB
:100520008AE692E00C94420F8AE692E00E946A0505
:1005300040E060E08AE692E00E94710567EB71E0BE
:100540008AE692E00E94420F6091A3027091A40299
:100550004AE050E08AE692E00E940C1064EC71E000
:100560008AE692E00E94420F41E060E08AE692E073
:100570000E94710566EC71E08AE692E00E94420FEB
:100580006091A1027091A2024AE050E08AE692E0F6
:100590000E940C1064EC71E08AE692E00E94420F27
:1005A00042E060E08AE692E00E94710566ED71E04B
:1005B0008AE692E00E94420F65EE71E08AE692E0E0
:1005C0000E94420F43E060E08AE692E00E947105DB
:1005D00068EE71E08AE692E00E94420F66EF71E0F9
:1005E0008AE692E00C94420F8AE692E00E946A0545
:1005F00040E060E08AE692E00E94710567EB71E0FE
:100600008AE692E00E94420F6091A3027091A402D8
:100610004AE050E08AE692E00E940C1064EC71E03F
:100620008AE692E00E94420F41E060E08AE692E0B2
:100630000E94710566EC71E08AE692E00E94420F2A
:100640006091A1027091A2024AE050E08AE692E035
:100650000E940C1064EC71E08AE692E00E94420F66
:1006600042E060E08AE692E00E94710566ED71E08A
:100670008AE692E00E94420F66EF71E08AE692E01D
:100680000E94420F43E060E08AE692E00E9471051A
:1006900068EE71E08AE692E00E94420F66EF71E038
:1006A0008AE692E00C94420F8091A3029091A402FA
:1006B000823491057CF08091A1029091A20285354F
:1006C00091050CF50E94940260E084E00E948F0C7A
:1006D00061E023C081349105E9F18091A1029091FC
:1006E000A20286359105FCF00E94340261E084E0AC
:1006F0000E948F0C60E08DE00E948F0C0E94AE0182
:100700000E94420121C08535910521F10E94F40229
:1007100060E084E00E948F0C60E08DE00E948F0C0E
:100720000E9462010FC085359105A4F40E94D40196
:1007300061E084E00E948F0C61E08DE00E948F0CEC
:100740000E94AE010E94880168EE73E080E090E0B4
:100750000C94900B0895AF92BF92CF92DF92EF92DC
:10076000FF920F931F93CF9381E00E94C50C40E04E
:1007700060E0019739F48AE692E00E9471056AEF21
:1007800071E006C08AE692E00E9471056DE072E0B9
:100790008AE692E00E94420F68EE73E080E090E00B
:1007A0000E94900B8AE692E00E946A0560E085EB69
:1007B00092E00E94CD0A6093AD027093AE028093E6
:1007C000AF029093B00240E060E085EB92E00E94BF
:1007D000350A6093B1027093B2028093B302909392
:1007E000B40240E060E08AE692E00E9471056FE1A9
:1007F00072E08AE692E00E94420F4091B10250916D
:10080000B2026091B3027091B40222E030E08AE655
:1008100092E00E94FF1066E272E08AE692E00E9497
:10082000420F41E060E08AE692E00E94710569E2D1
:1008300072E08AE692E00E94420F4091AD02509130
:10084000AE026091AF027091B00222E030E08AE621
:1008500092E00E94FF1060E372E08AE692E00E945C
:10086000420F68EE73E080E090E00E94900B60E041
:100870008AE00E948F0C82E090E00E94CA0B61E047
:100880008AE00E948F0C8AE090E00E94CA0B60E030
:100890008AE00E948F0C20E432E44FE050E061E0F7
:1008A00089E00E94EE0C6093A9027093AA028093E3
:1008B000AB029093AC020E945D1226E933E44BE850
:1008C0005CE30E9411130E942A127093A8026093A5
:1008D000A702882777FD8095982F1F921F921F925D
:1008E000C4E6CF93A12CB12C6501EE24EA9413E069
:1008F000F12E00E010E020E030E0A9010E9401119B
:100900007093A4026093A3028EE00E94100C909357
:10091000A6028093A502BC01882777FD8095982FB9
:100920001F921F921F92CF9320E030E0A9010E94F6
:1009300001117093A2026093A1028DB79EB7089631
:100940000FB6F8949EBF0FBE8DBFCF911F910F9130
:10095000FF90EF90DF90CF90BF90AF900C94540336
:10096000CF92EF920F9326E04BE060E085EB92E0B0
:100970000E94C30820E043E062E082E892E00E9427
:10098000050835E0C32E46E0E42E07E028E04BE002
:100990006CE08AE692E00E9429060F91EF90CF90DA
:1009A000089582E892E00C94AC07CF93DF93EC01BA
:1009B00060E08E810E948F0C81E090E00E94CA0B63
:1009C00061E08E810E948F0C81E090E00E94CA0B52
:1009D00060E08E810E948F0C84E690E0DF91CF91E1
:1009E0000C94CA0BEF92FF920F931F93CF93DF9358
:1009F0008C01C0E0D0E0E62EF12CB7010C2E02C035
:100A0000759567950A94E2F76170F801EC0FFD1F88
:100A100087810E948F0C2196C430D10571F7C801DF
:100A2000DF91CF911F910F91FF90EF900C94D5041F
:100A3000EF92FF920F931F93CF93DF938C01C0E04F
:100A4000D0E0E62EF12CB7010C2E02C0759567950B
:100A50000A94E2F76170F801EC0FFD1F87810E9494
:100A60008F0C2196C830D10571F7C801DF91CF9165
:100A70001F910F91FF90EF900C94D5041F93CF938B
:100A8000DF93EC01162F642F8C810E948F0C8D81D7
:100A90008F3F19F060E00E948F0C8F85612F84FFDB
:100AA00006C0CE01DF91CF911F910C94180570E024
:100AB00084E0759567958A95E1F7CE010E94F2046E
:100AC000612FCE01DF91CF911F910C94F20440E091
:100AD0000C943E0561E00E94670580ED97E00C9460
:100AE000CA0B443008F043E0FC012389421710F0A0
:100AF0004FEF420FFC01E40FF11D2489260F2068FF
:100B0000622F0C946705FC016089262F2460208BDE
:100B10006C600C9467050F931F93CF93DF93EC01E8
:100B2000423018F08F8588608F874B8B1C8A80E459
:100B30008D8B6E8B70E0605C7F4F6F8B222329F072
:100B4000413019F48F8584608F8761E08C810E9429
:100B5000560C8D818F3F19F061E00E94560C61E0C8
:100B60008E810E94560C00E010E08F8584FF03C048
:100B700088E090E002C084E090E00817190754F480
:100B8000FE01E00FF11F61E087810E94560C0F5FAC
:100B90001F4FEBCF80E593EC0E94CA0B60E08C8185
:100BA0000E948F0C60E08E810E948F0C8D818F3FA0
:100BB00019F060E00E948F0C6F8564FD1DC063E03A
:100BC000CE010E94F20484E991E10E94CA0B63E025
:100BD000CE010E94F20484E991E10E94CA0B63E015
:100BE000CE010E94F20486E990E00E94CA0B62E006
:100BF000CE010E94F20416C06062CE010E94670519
:100C000084E991E10E94CA0B6F856062CE010E9467
:100C1000670586E990E00E94CA0B6F856062CE018D
:100C20000E9467056F856062CE010E94670584E0BF
:100C3000888BCE010E948305CE010E946A0582E066
:100C4000898B66E0CE01DF91CF911F910F910C94BB
:100C50006705CF92EF920F93FC011382128287E314
:100C600092E09183808364838FEF8583468327831B
:100C70000087E186C2861386148615861686178637
:100C800020E041E060E1CF010F91EF90CF900C9414
:100C90008B0541E00E943E0581E090E0089520919F
:100CA0000A0330910B0328173907B9F49091C80251
:100CB0008091C902981789F0E091C802F0E0E653EC
:100CC000FD4F80812091C80230E02F5F3F4F2F738E
:100CD00033272093C80290E008958FEF9FEF089587
:100CE0001F93CF93DF93DC015C968D919C915D9770
:100CF000009749F481E090E013969C938E931297AD
:100D000080E090E03BC05196ED91FC915297509657
:100D10002C915097322F30951FB75E964C915E976D
:100D200041FB772770F941FD6095F8944081772366
:100D300011F0422B01C043234083EC012197F1F7CE
:100D400048E0508160FF02C0522B01C05323508302
:100D5000EC012197F1F76695415099F7808177234F
:100D600011F0832301C0822B80831FBF5C968D917D
:100D70009C915D970197F1F781E090E0DF91CF9131
:100D80001F910895089520910A0330910B032817AD
:100D9000390771F49091C8028091C902981741F007
:100DA000E091C802F0E0E653FD4F808190E00895A5
:100DB0008FEF9FEF089520910A0330910B032817BE
:100DC000390771F48091C9022091C80290E0805CDB
:100DD0009F4F821B910960E470E00E948813089580
:100DE00080E090E00895E0910A03F0910B03E8178A
:100DF000F90769F4A389B4899C9185898095892331
:100E00008C9310920B0310920A0381E0089580E006
:100E10000895CF93DF93EC018A8D9B8D892BF1F0A0
:100E200080910A0390910B038C179D07B9F00097EE
:100E300011F00E94F3068E8D8E7F8E8F1092C90264
:100E40001092C802D0930B03C0930A03EB89FC896C
:100E500080819D89892B808381E001C080E0DF91C2
:100E6000CF9108951F920F920FB60F9211242F93D6
:100E70003F934F935F936F937F938F939F93AF9322
:100E8000BF93EF93FF93E0910A03F0910B03309728
:100E900009F451C0868DA685B785958581FF04C06C
:100EA0008C91892329F447C08C91892309F043C090
:100EB000A389B4899C918589809589238C9386899F
:100EC00097890197F1F7208D318DA685B7857585B6
:100ED00058E040E0C9010197F1F7842F90E0959523
:100EE0008795482F6C91672309F04068515091F71E
:100EF000868D81FD40958091C90290E001968F73A7
:100F000099272091C802281749F0A091C902B0E0A2
:100F1000A653BD4F4C938093C90203C0868D816058
:100F2000868F828D938D0197F1F7A389B4898C9177
:100F30009589892B8C93FF91EF91BF91AF919F91F0
:100F40008F917F916F915F914F913F912F910F9072
:100F50000FBE0F901F9018952FE332E0FC013183F4
:100F600020830C94F3061F93CF93DF93EC01162F8D
:100F70006E8D6695617081E06827812F0E948F0CCD
:100F800061E0812F0E94560C812F90E0FC01E45813
:100F9000FF4FE491E88BFC01E057FF4FE491F0E054
:100FA000EE0FFF1FE255FF4F859194919A8B898B2D
:100FB000DF91CF911F9108951F93CF93DF93EC01A1
:100FC000162F60E0812F0E94560C8E8D81FD04C08B
:100FD00061E0812F0E948F0C1C87812F90E0FC0123
:100FE000E458FF4FE491ED87FC01E057FF4FE49197
:100FF000F0E0EE0FFF1FEC55FF4F859194919F8716
:101000008E87DF91CF911F910895FF920F931F93C9
:10101000CF93DF93EC01F62E522F1B821A8208EE3B
:1010200013E020E030E00C831D832E833F838FE3A9
:1010300092E0998388831F8A1E8A198E188E1B8ED0
:101040001A8E1D8E1C8E8E8D8E7F50FB81F98E8F99
:10105000642FCE010E94B3076F2DCE01DF91CF9197
:101060001F910F91FF900C94DC07CF93DF93EC015D
:101070009A01AB011B8E1A8E198E188E1F8A1E8A3A
:1010800060E079E08DE390E00E94BE13C901243056
:10109000310520F0B9016350710902C061E070E0D0
:1010A0007D8F6C8FEC85E63108F068C0B9017695CC
:1010B00067956431710518F06351710902C061E0F0
:1010C00070E07F8B6E8B069718F0C901059702C000
:1010D00081E090E0998F888FC901880F991F820F56
:1010E000931F96958795969587958D30910510F06D
:1010F0000C9702C081E090E09B8F8A8F209168005E
:10110000E83050F091E0EE3008F490E081E001C06A
:10111000880F9A95EAF701C084E0822B80936800DB
:101120002C85283038F02E3040F0263148F48CE6FB
:1011300090E008C08DE690E005C08BE690E002C02C
:1011400080E090E09C8B8B8B283030F481E001C0F4
:10115000880F2A95EAF70DC0822F90E02E3010F408
:10116000089701C00E9791E001C0990F8A95EAF7A0
:10117000892F8D8B8C8D9D8D0197F1F7CE01DF919D
:10118000CF910C940907DC0115966C931597169670
:101190004C93169770E0FB01E458FF4FE4911796CB
:1011A000EC931797FB01E057FF4F649118966C93EF
:1011B000189740E85EE360E070E01D964D935D9304
:1011C0006D937C93509708951F93CF93DF93EC0119
:1011D000162F62E08D810E94560C0E94610B605DAB
:1011E00077408109910969877A878B879C871A8B59
:1011F000DF91CF911F910895EF92FF920F931F936C
:10120000CF93DF93EC01EF80662311F0FE2C01C039
:10121000F12CA885B0E0AA0FBB1FAC55BF4F80E0F2
:1012200090E0FD0125913491F90120812E21AC013E
:1012300060E070E02F110FC001960D851E852F858F
:101240003889401751076207730758F33FEF2FEFB4
:101250008FEF9FEF03C0382F252FCB01632F722F05
:10126000DF91CF911F910F91FF90EF900895CF9252
:10127000DF92EF92FF920F931F93CF93DF93CDB73F
:10128000DEB7C054D1400FB6F894DEBF0FBECDBF5D
:101290008C01F62E0E94610BF11016C0F801C1847A
:1012A000D284E384F4849B01AC012C193D094E09DE
:1012B0005F0969017A0130EDC31637E0D306E10416
:1012C000F10410F48189C1C0F801618772878387B6
:1012D00094871482138212821182108262E08581C7
:1012E0000E94560C61E070E080E090E00E94900B5C
:1012F00061E0F80185810E94560C60E0F80185816B
:101300000E948F0CF80186818551823028F48CE48C
:1013100094E00E94CA0B06C064E170E080E090E0B7
:101320000E94900B62E0F80185810E94560CF80142
:10133000828990E00E94CA0BF89460E0C8010E9484
:10134000FC086F3F7F4F8F4F9F4F49F061E0C8010E
:101350000E94FC086F3F7F4F8F4F9F4F21F4F80191
:10136000118A789471C06E01FFEBCF1AFEEFDF0A8D
:101370009E012F5F3F4F790160E0C8010E94FC0889
:10138000F701608371838283938361E0C8010E94C7
:10139000FC08F7016483758386839783F8E0EF0E7A
:1013A000F11CEC14FD0441F778949E012F5F3F4F30
:1013B000790120E030E0F701408151816281738141
:1013C00084819581A681B7814F3FFFEF5F076F074B
:1013D0007F07C1F18F3FEFEF9E07AE07BE0791F188
:1013E000F901F595E795F595E795F595E795E00F02
:1013F000F11FD080DD0C481759076A077B0710F0F2
:10140000D08203C08D2D816080832F5F3F4FF8E035
:10141000EF0EF11C2832310571F6F801248130E01D
:101420004081818190E0840F911D4281840F911D44
:101430004381840F911D99272817390719F481E0FA
:10144000818B03C0F801118A80E0C05CDE4F0FB6CB
:10145000F894DEBF0FBECDBFDF91CF911F910F91EA
:10146000FF90EF90DF90CF900895CF92DF92EF92B0
:10147000FF920F931F93CF93DF938C01C62F642F9E
:101480000E943709882309F47BC0F80186818C30DB
:1014900009F447C018F48B30C9F072C0855182300E
:1014A00008F06EC0F801D2816D2F6F7770E0762F53
:1014B00066278381682B80E090E00E945B122DEC10
:1014C0003CEC4CEC5DE30E94111349C0F8016281D1
:1014D00070E080E090E00E945B126B017C01F801FB
:1014E000D381D7FF0AC09B01AC0160E070E080E8C7
:1014F0009FEB0E9459116B017C016D2F6F7070E0A2
:1015000080E090E00E945D122DEC3CEC4CEC5DE341
:101510000E9411139B01AC01C701B6010E945A1130
:1015200020C0F801D2816D2F70E080E090E00E9431
:101530005B126B017C01F80163816F7070E080E0E9
:1015400090E00E945D122DEC3CEC4CEC5DE30E94BF
:1015500011139B01AC01C701B6010E945A11D7FDBE
:101560009058CC2389F026E636E646EE5FE30E94EB
:10157000111320E030E040E052E40E945A1104C010
:1015800060E070E080EC9FE7DF91CF911F910F91B9
:10159000FF90EF90DF90CF900895CF92DF92EF927F
:1015A000FF92CF93DF93EC010E9437098823A1F1CA
:1015B0008E818B3088F18D30A0F08551823060F5BE
:1015C000688170E0762F66278981682B80E090E043
:1015D0000E945B122DEC3CEC4CEC5DE30E9411137D
:1015E0001FC0688170E080E090E00E945D126B0196
:1015F0007C01698170E080E090E00E945D122DEC3A
:101600003CEC4CEC5DE30E9411139B01AC01C70163
:10161000B6010E945A1104C060E070E080EC9FE7C0
:10162000DF91CF91FF90EF90DF90CF9008951F92C0
:101630000F920FB60F9211242F933F938F939F9386
:10164000AF93BF9380910D0390910E03A0910F0370
:10165000B091100330910C0323E0230F2D3720F4B9
:101660000196A11DB11D05C026E8230F0296A11DFC
:10167000B11D20930C0380930D0390930E03A09350
:101680000F03B09310038091110390911203A09166
:101690001303B09114030196A11DB11D8093110392
:1016A00090931203A0931303B0931403BF91AF91CF
:1016B0009F918F913F912F910F900FBE0F901F9090
:1016C00018952FB7F89460910D0370910E038091D7
:1016D0000F03909110032FBF08953FB7F8948091A6
:1016E000110390911203A0911303B091140326B536
:1016F000A89B05C02F3F19F00196A11DB11D3FBF4A
:101700006627782F892F9A2F620F711D811D911DD9
:1017100042E0660F771F881F991F4A95D1F70895F9
:101720008F929F92AF92BF92CF92DF92EF92FF92F1
:101730006B017C010E946D0B4B015C01C114D10453
:10174000E104F104F1F00E9458110E946D0B681938
:1017500079098A099B09683E73408105910570F3F8
:1017600021E0C21AD108E108F10888EE880E83E072
:10177000981EA11CB11CC114D104E104F10429F785
:10178000DDCFFF90EF90DF90CF90BF90AF909F9014
:101790008F9008958230910538F0880F991F880F37
:1017A000991F05970197F1F70895789484B58260A1
:1017B00084BD84B5816084BD85B5826085BD85B5F5
:1017C000816085BDEEE6F0E0808181608083E1E8A4
:1017D000F0E01082808182608083808181608083DC
:1017E000E0E8F0E0808181608083E1EBF0E08081DF
:1017F00084608083E0EBF0E0808181608083EAE7B1
:10180000F0E0808184608083808182608083808139
:10181000816080838081806880831092C1000895F8
:101820008E3008F08E50877020910A0190E4299F35
:1018300090011124822B80937C0080917A00806437
:1018400080937A0080917A0086FDFCCF80917800A9
:101850002091790090E0922B0895833081F028F454
:10186000813099F08230A1F008958730A9F0883056
:10187000B9F08430D1F4809180008F7D03C08091D5
:1018800080008F7780938000089584B58F7702C0A1
:1018900084B58F7D84BD08958091B0008F7703C09B
:1018A0008091B0008F7D8093B0000895CF93DF9337
:1018B00090E0FC01E458FF4F2491FC01E057FF4FFA
:1018C0008491882349F190E0880F991FFC01E85426
:1018D000FF4FA591B49182559F4FFC01C591D491C2
:1018E0009FB7611108C0F8948C91209582238C9346
:1018F000888182230AC0623051F4F8948C91322F8F
:10190000309583238C938881822B888304C0F8943C
:101910008C91822B8C939FBFDF91CF9108950F9371
:101920001F93CF93DF931F92CDB7DEB7282F30E000
:10193000F901E859FF4F8491F901E458FF4F1491E0
:10194000F901E057FF4F04910023C9F0882321F0EB
:1019500069830E942D0C6981E02FF0E0EE0FFF1FDC
:10196000E255FF4FA591B4919FB7F8948C91611106
:1019700003C01095812301C0812B8C939FBF0F90D2
:10198000DF91CF911F910F910895CF93DF93282F6F
:1019900030E0F901E859FF4F8491F901E458FF4F15
:1019A000D491F901E057FF4FC491CC2391F08111FC
:1019B0000E942D0CEC2FF0E0EE0FFF1FEC55FF4FB7
:1019C000A591B4912C912D2381E090E021F480E049
:1019D00002C080E090E0DF91CF9108950F931F93B4
:1019E000762F90E0FC01E458FF4F6491FC01E05732
:1019F000FF4FE4917111762FF0E0EE0FFF1FEC55D1
:101A0000FF4F8591949189019A013F70472F0E9461
:101A10008E00611571058105910531F06F5F7F4F73
:101A20008F4F9F4F9F7003C060E070E0CB011F910C
:101A30000F910895FC01818D228D90E0805C9F4F75
:101A4000821B91098F7399270895FC01918D828DD6
:101A5000981731F0828DE80FF11D858D90E0089583
:101A60008FEF9FEF0895FC01918D828D981761F0A3
:101A7000828DDF01A80FB11D5D968C91928D9F5FC5
:101A80009F73928F90E008958FEF9FEF089587EBFB
:101A90009EE0892B49F080E090E0892B29F00E949C
:101AA000B70E81110C9400000895FC01848DDF01B4
:101AB000A80FB11DA35ABF4F2C91848D90E00196C1
:101AC0008F739927848FA689B7892C93A089B189B0
:101AD0008C9180648C93938D848D981306C00288BA
:101AE000F389E02D80818F7D80830895CF93DF93EC
:101AF000EC01888D8823C9F0EA89FB89808185FD06
:101B000005C0A889B9898C9186FD0FC00FB607FC66
:101B1000F5CF808185FFF2CFA889B9898C9185FFA7
:101B2000EDCFCE010E94550DE7CFDF91CF91089503
:101B3000CF92DF92FF920F931F93CF93DF931F9269
:101B4000CDB7DEB76C0181E0D60158968C935897DB
:101B50005B969C915B975C968C915C97981307C001
:101B60005096ED91FC915197808185FD2EC0F60134
:101B7000038D10E00F5F1F4F0F731127F02EF6013A
:101B8000848DF81211C00FB607FCF9CFD60150961C
:101B9000ED91FC915197808185FFF1CFC60169835A
:101BA0000E94550D6981EBCF838DE80FF11DE35A3B
:101BB000FF4F6083D6015B960C935B975296ED9135
:101BC000FC915397808180620CC0D6015696ED91AE
:101BD000FC91579760835096ED91FC9151978081CD
:101BE0008064808381E090E00F90DF91CF911F911E
:101BF0000F91FF90DF90CF900895BF92CF92DF9228
:101C0000EF92FF92CF93DF93EC016A017B01B22E3A
:101C1000E889F98982E08083411581EE58076105E2
:101C20007105A1F060E079E08DE390E0A7019601F5
:101C30000E949C132150310941095109569547953D
:101C400037952795211580E1380798F0E889F989BB
:101C5000108260E874E88EE190E0A70196010E948E
:101C60009C132150310941095109569547953795E3
:101C70002795EC85FD853083EE85FF852083188EC2
:101C8000EC89FD89B082EA89FB898081806180834B
:101C9000EA89FB89808188608083EA89FB89808169
:101CA00080688083EA89FB8980818F7D8083DF91D2
:101CB000CF91FF90EF90DF90CF90BF9008951F924B
:101CC0000F920FB60F9211242F938F939F93EF9340
:101CD000FF93E0912503F09126038081E0912B038F
:101CE000F0912C0382FD12C0908180912E038F5FB2
:101CF0008F7320912F03821751F0E0912E03F0E0B3
:101D0000EB5EFC4F958F80932E0301C08081FF9185
:101D1000EF919F918F912F910F900FBE0F901F9079
:101D200018951F920F920FB60F9211242F933F9385
:101D30004F935F936F937F938F939F93AF93BF93D3
:101D4000EF93FF9385E193E00E94550DFF91EF9192
:101D5000BF91AF919F918F917F916F915F914F91C3
:101D60003F912F910F900FBE0F901F90189585E116
:101D700093E00E941A0D21E0892B09F420E0822FC4
:101D80000895109218031092170388EE93E0A0E0D4
:101D9000B0E08093190390931A03A0931B03B093B0
:101DA0001C038FE492E0909316038093150385EC57
:101DB00090E0909322038093210384EC90E0909331
:101DC00024038093230380EC90E090932603809378
:101DD000250381EC90E0909328038093270382EC05
:101DE00090E090932A038093290386EC90E09093EF
:101DF0002C0380932B0310922E0310922F0310922A
:101E00003003109231030895CF92DF92EF92FF9248
:101E10000F931F93CF93DF937C016A01EB0100E0E6
:101E200010E00C151D0571F06991D701ED91FC9141
:101E30000190F081E02DC7010995892B19F00F5F02
:101E40001F4FEFCFC801DF91CF911F910F91FF90EE
:101E5000EF90DF90CF9008956115710581F0DB015F
:101E60000D900020E9F7AD0141505109461B570B79
:101E7000DC01ED91FC910280F381E02D099480E07A
:101E800090E008950C942C0FDC01ED91FC910190F1
:101E9000F081E02D09946BE572E00C942C0F0F9308
:101EA0001F93CF93DF93EC010E942C0F8C01CE0186
:101EB0000E944B0F800F911FDF91CF911F910F91C7
:101EC00008950F931F93CF93DF93EC010E94440F6B
:101ED0008C01CE010E944B0F800F911FDF91CF919B
:101EE0001F910F9108958F929F92AF92BF92DF92B0
:101EF000EF92FF920F931F93CF93DF93CDB7DEB78F
:101F0000A1970FB6F894DEBF0FBECDBF7C01F42FB2
:101F1000D52ECB0119A2223008F42AE08E010F5DE4
:101F20001F4F822E912CA12CB12C6F2F7D2DA5013E
:101F300094010E949C13F22FD32ECA010150110963
:101F40006A3014F4E0E301C0E7E3E60FD801EC9354
:101F5000232B242B252B49F7B801C7010E942C0FF6
:101F6000A1960FB6F894DEBF0FBECDBFDF91CF9123
:101F70001F910F91FF90EF90DF90BF90AF909F90D7
:101F80008F900895CF92DF92EF92FF920F931F935D
:101F9000CF93DF93EC016A017B012115310579F4C0
:101FA000E881F9810190F081E02D642FDF91CF91DC
:101FB0001F910F91FF90EF90DF90CF9009942A30FE
:101FC0003105E9F477FF1AC06DE20E94440F8C01DD
:101FD00044275527BA014C195D096E097F092AE08B
:101FE000CE010E94730F800F911FDF91CF911F913F
:101FF0000F91FF90EF90DF90CF9008952AE0B70106
:10200000A601CE01DF91CF911F910F91FF90EF902C
:10201000DF90CF900C94730F9A01AB01662757FDA8
:102020006095762F0C94C20F4F925F926F927F92C1
:102030008F929F92AF92BF92CF92DF92EF92FF92D8
:102040000F931F93CF93DF93EC016A017B01B22EB4
:102050009A01AB01C701B6010E947413882319F0DD
:102060006EE572E027C026013701E89477F82FEF7C
:102070003FEF4FE75FE7C301B2010E947413811184
:102080000DC02FEF3FEF4FE75FE7C301B2010E94A2
:10209000BE1118161CF462E672E00CC02FEF3FEF81
:1020A0004FE75FE4C701B6010E940D131816ACF4A8
:1020B00066E672E0CE01DF91CF911F910F91FF9004
:1020C000EF90DF90CF90BF90AF909F908F907F90D8
:1020D0006F905F904F900C942C0F2FEF3FEF4FE7D6
:1020E0005FECC701B6010E94BE1187FDE1CF20E081
:1020F00030E0A901C701B6010E94BE1187FF0AC0E6
:102100006DE2CE010E94440F8C01F7FAF094F7F8CB
:10211000F09402C000E010E0A12C60E070E080E0EC
:102120009FE3AB1441F020E030E040E251E40E9434
:10213000C211A394F6CF9B01AC01C701B6010E9466
:102140005A116B017C010E942F122B013C010E944D
:102150005B129B01AC01C701B6010E9459116B01D2
:102160007C012AE0B301A201CE010E94730F080F87
:10217000191FBB2039F067E272E0CE010E942C0FDC
:10218000080F191F7B2C772041F120E030E040E25E
:1021900051E4C701B6010E9411136B017C010E943A
:1021A0002A124B01AA2497FCA094BA2C2AE030E012
:1021B000B501A401CE010E94C20F080F191FC5016D
:1021C000B4010E945D129B01AC01C701B6010E94DF
:1021D00059116B017C017A94D6CFC801DF91CF9160
:1021E0001F910F91FF90EF90DF90CF90BF90AF9035
:1021F0009F908F907F906F905F904F9008950C9478
:1022000014104F925F926F927F92AF92BF92CF92D3
:10221000DF92EF92FF920F931F93CF93DF93CDB78F
:10222000DEB729013A01621B730B840B950B2989D8
:102230003A894B895C892A193B094C095D09298B2C
:102240003A8B4B8B5C8B9B01AC0169897A898B89BA
:102250009C890E947813E418F50806091709A8015B
:1022600097010E94BE132A0D3B1D4C1D5D1DCA0126
:10227000B901DF91CF911F910F91FF90EF90DF9007
:10228000CF90BF90AF907F906F905F904F900895E8
:1022900008950E94D50B0E9448110E94D300C7E404
:1022A000DDE00E94AB032097E1F30E94470DF9CFD8
:1022B00008955058BB27AA270ED075C166D130F0BB
:1022C0006BD120F031F49F3F11F41EF45BC10EF48A
:1022D000E095E7FB51C1E92F77D180F3BA17620788
:1022E00073078407950718F071F49EF58FC10EF4FB
:1022F000E0950B2EBA2FA02D0B01B90190010C0116
:10230000CA01A0011124FF27591B99F0593F50F42D
:10231000503E68F11A16F040A22F232F342F442785
:10232000585FF3CF469537952795A795F04053957D
:10233000C9F77EF41F16BA0B620B730B840BBAF04D
:102340009150A1F0FF0FBB1F661F771F881FC2F7B8
:102350000EC0BA0F621F731F841F48F487957795CC
:102360006795B795F7959E3F08F0B3CF9395880F83
:1023700008F09927EE0F979587950895D9D008F41E
:1023800081E008950CD00FC107D140F0FED030F0AD
:1023900021F45F3F19F0F0C0511139C1F3C014D1DD
:1023A00098F39923C9F35523B1F3951B550BBB271C
:1023B000AA2762177307840738F09F5F5F4F220FC9
:1023C000331F441FAA1FA9F333D00E2E3AF0E0E8C2
:1023D00030D091505040E695001CCAF729D0FE2F0E
:1023E00027D0660F771F881FBB1F261737074807A0
:1023F000AB07B0E809F0BB0B802DBF01FF27935856
:102400005F4F2AF09E3F510568F0B6C000C15F3FA4
:10241000ECF3983EDCF3869577956795B795F7953D
:102420009F5FC9F7880F911D9695879597F9089535
:10243000E1E0660F771F881FBB1F621773078407D1
:10244000BA0720F0621B730B840BBA0BEE1F88F7E0
:10245000E095089504D06894B111D9C00895BCD016
:1024600088F09F5790F0B92F9927B751A0F0D1F07D
:10247000660F771F881F991F1AF0BA95C9F712C007
:10248000B13081F0C3D0B1E00895C0C0672F782F7C
:102490008827B85F39F0B93FCCF386957795679573
:1024A000B395D9F73EF490958095709561957F4FDF
:1024B0008F4F9F4F0895E89409C097FB3EF4909585
:1024C0008095709561957F4F8F4F9F4F9923A9F00D
:1024D000F92F96E9BB279395F6958795779567959C
:1024E000B795F111F8CFFAF4BB0F11F460FF1BC0E0
:1024F0006F5F7F4F8F4F9F4F16C0882311F096E973
:1025000011C0772321F09EE8872F762F05C0662320
:1025100071F096E8862F70E060E02AF09A95660FD9
:10252000771F881FDAF7880F9695879597F9089592
:10253000990F0008550FAA0BE0E8FEEF16161706D4
:10254000E807F907C0F012161306E407F50798F03C
:10255000621B730B840B950B39F40A2661F0232B55
:10256000242B252B21F408950A2609F4A140A695D1
:102570008FEF811D811D089597F99F6780E870E0B6
:1025800060E008959FEF80EC089500240A941616E9
:10259000170618060906089500240A941216130651
:1025A000140605060895092E0394000C11F48823DF
:1025B00052F0BB0F40F4BF2B11F460FF04C06F5FFB
:1025C0007F4F8F4F9F4F089557FD9058440F551FD1
:1025D00059F05F3F71F04795880F97FB991F61F0A5
:1025E0009F3F79F087950895121613061406551F1C
:1025F000F2CF4695F1DF08C0161617061806991F88
:10260000F1CF86957105610508940895E894BB277C
:1026100066277727CB0197F908958ADF08F48FEFB3
:1026200008950BD0C0CFB1DF28F0B6DF18F09523A6
:1026300009F0A2CFA7CF1124EACFC6DFA0F3959F60
:10264000D1F3950F50E0551F629FF001729FBB2799
:10265000F00DB11D639FAA27F00DB11DAA1F649F45
:102660006627B00DA11D661F829F2227B00DA11DF8
:10267000621F739FB00DA11D621F839FA00D611D7E
:10268000221F749F3327A00D611D231F849F600D9F
:10269000211D822F762F6A2F11249F5750408AF0D8
:1026A000E1F088234AF0EE0FFF1FBB1F661F771F64
:1026B000881F91505040A9F79E3F510570F05CCFA4
:1026C000A6CF5F3FECF3983EDCF386957795679550
:1026D000B795F795E7959F5FC1F7FE2B880F911D82
:1026E0009695879597F9089523DF880B990B0895A0
:1026F000DB018F939F930E94E313BF91AF91A29F41
:10270000800D911DA39F900DB29F900D11240895EF
:1027100097FB072E16F4009407D077FD09D00E948E
:10272000EE1307FC05D03EF4909581959F4F0895D8
:10273000709561957F4F0895A1E21A2EAA1BBB1BCD
:10274000FD010DC0AA1FBB1FEE1FFF1FA217B3077D
:10275000E407F50720F0A21BB30BE40BF50B661F93
:10276000771F881F991F1A9469F760957095809557
:1027700090959B01AC01BD01CF010895052E97FBFB
:102780001EF400940E94D51357FD07D00E949C139D
:1027900007FC03D04EF40C94D5135095409530951A
:1027A00021953F4F4F4F5F4F0895909580957095BD
:1027B00061957F4F8F4F9F4F0895EE0FFF1F05903C
:1027C000F491E02D09940E940214A59F900DB49FEE
:1027D000900DA49F800D911D11240895AA1BBB1B71
:1027E00051E107C0AA1FBB1FA617B70710F0A61B11
:1027F000B70B881F991F5A95A9F780959095BC0132
:10280000CD010895A29FB001B39FC001A39F700D99
:10281000811D1124911DB29F700D811D1124911DE8
:10282000089510E0C6ECD0E004C0FE010E94DF1362
:0C2830002296C83CD107C9F7F894FFCFEE
:10283C000000B203800001000000014952524947D8
:10284C004154494F4E2050524F4A4543540056690B
:10285C00706173686120262053686976616E690027
:10286C0057656C636F6D650041542B434D47463D76
:10287C00310D0041542B434D47533D222B393178B8
:10288C0078787878787878787822007761746572BF
:10289C00696E672070756D70206973206F666600B5
:1028AC0074616E6B2070756D70206973206F666635
:1028BC00007761746572696E672070756D70206940
:1028CC0073206F6E0074616E6B2070756D70206973
:1028DC0073206F6E0074616E6B2070756D70206963
:1028EC0073206F6E20200054616E6B204C657665F2
:1028FC006C3D200025006D6F69737420436F6E74FE
:10290C00656E743D2000572070756D702073746176
:10291C0074757320004F4E00542070756D702073C9
:10292C007461747573004F464600204761732044F0
:10293C006574656374656420596573200020476174
:10294C0073204E6F20446574656374656420005475
:10295C00656D703A2000432E0048756D693A200071
:10296C00252000000000004906040F000000007044
:10297C0006040FDB064F06C306C2060000000098D3
:10298C000D040F1A0D330D250D760D0D0A006E6119
:0A299C006E00696E66006F7666003B
:107E0000112484B714BE81FFF0D085E080938100F7
:107E100082E08093C00088E18093C10086E0809377
:107E2000C20080E18093C4008EE0C9D0259A86E02C
:107E300020E33CEF91E0309385002093840096BBD3
:107E4000B09BFECF1D9AA8958150A9F7CC24DD24C4
:107E500088248394B5E0AB2EA1E19A2EF3E0BF2EE7
:107E6000A2D0813461F49FD0082FAFD0023811F036
:107E7000013811F484E001C083E08DD089C08234E0
:107E800011F484E103C0853419F485E0A6D080C0E4
:107E9000853579F488D0E82EFF2485D0082F10E0AE
:107EA000102F00270E291F29000F111F8ED06801E7
:107EB0006FC0863521F484E090D080E0DECF843638
:107EC00009F040C070D06FD0082F6DD080E0C81688
:107ED00080E7D80618F4F601B7BEE895C0E0D1E017
:107EE00062D089930C17E1F7F0E0CF16F0E7DF06D8
:107EF00018F0F601B7BEE89568D007B600FCFDCFD4
:107F0000A601A0E0B1E02C9130E011968C91119780
:107F100090E0982F8827822B932B1296FA010C0160
:107F200087BEE89511244E5F5F4FF1E0A038BF0790
:107F300051F7F601A7BEE89507B600FCFDCF97BE46
:107F4000E89526C08437B1F42ED02DD0F82E2BD052
:107F50003CD0F601EF2C8F010F5F1F4F84911BD097
:107F6000EA94F801C1F70894C11CD11CFA94CF0C13
:107F7000D11C0EC0853739F428D08EE10CD085E9AC
:107F80000AD08FE07ACF813511F488E018D01DD067
:107F900080E101D065CF982F8091C00085FFFCCF94
:107FA0009093C60008958091C00087FFFCCF809118
:107FB000C00084FD01C0A8958091C6000895E0E648
:107FC000F0E098E1908380830895EDDF803219F02E
:107FD00088E0F5DFFFCF84E1DECF1F93182FE3DFCA
:107FE0001150E9F7F2DF1F91089580E0E8DFEE27F6
:047FF000FF270994CA
:027FFE00040479
:0400000300007E007B
:00000001FF
