:100000000C9463000C948B000C948B000C946E0881
:100010000C946E080C946E080C948B000C948B005E
:100020000C948B000C948B000C948B000C948B0024
:100030000C948B000C948B000C948B000C948B0014
:100040000C9424080C948B000C94F2070C94CC07AD
:100050000C948B000C948B000C948B000C948B00F4
:100060000C948B000C948B000000000024002700EF
:100070002A0000000008000201000003040700003D
:1000800000000000000000000000230026002900FE
:1000900000000000250028002B00040404040404D0
:1000A0000404020202020202030303030303010227
:1000B00004081020408001020408102001020408F6
:1000C00010202B09DA0E11241FBECFEFD8E0DEBFBF
:1000D000CDBF12E0A0E0B1E0E6E9F3E202C0059096
:1000E0000D92A036B107D9F723E0A0E6B2E001C037
:1000F0001D92A03AB207E1F710E0C2E6D0E004C0DA
:100100002197FE010E94B811C136D107C9F70E949C
:100110001D0A0C94BE110C940000CF92DF92EF9256
:10012000FF92CF93DF93B0919403A0E08111AB2FA6
:100130008091950390E0880F991FAC014A575F4F5B
:10014000C0909A03D0909B03E0909C03F0909D0395
:1001500030E020E0FA01C591D491E881B90190E046
:1001600080E0EB23EA130AC02F5F3F4F6C157D053B
:100170008E059F0578F36FEF7FEFCB01DF91CF9175
:10018000FF90EF90DF90CF900895AF92BF92CF9203
:10019000DF92EF92FF920F931F93CF93DF936C0147
:1001A0007B018B01040F151FEB015E01AE18BF0828
:1001B000C017D10759F06991D601ED91FC910190DA
:1001C000F081E02DC6010995892B79F7C501DF91F2
:1001D000CF911F910F91FF90EF90DF90CF90BF9044
:1001E000AF900895FC01538D448D252F30E0842F6E
:1001F00090E0821B930B541710F0CF96089501974F
:100200000895FC01918D828D981761F0A28DAE0F3B
:10021000BF2FB11D5D968C91928D9F5F9F73928FC2
:1002200090E008958FEF9FEF0895FC01918D828DEE
:10023000981731F0828DE80FF11D858D90E00895BB
:100240008FEF9FEF0895FC01918D228D892F90E013
:10025000805C9F4F821B91098F739927089589EBCA
:1002600092E00E94230121E0892B09F420E0822FF3
:10027000089580E090E0892B29F00E942F018111E0
:100280000C9400000895FC01A48DA80FB92FB11D96
:10029000A35ABF4F2C91848D90E001968F739927BC
:1002A000848FA689B7892C93A089B1898C9183709A
:1002B00080648C93938D848D981306C00288F38993
:1002C000E02D80818F7D80830895EF92FF920F93C0
:1002D0001F93CF93DF93EC0181E0888F9B8D8C8DF2
:1002E00098131AC0E889F989808185FF15C09FB7E6
:1002F000F894EE89FF896083E889F98980818370A9
:10030000806480839FBF81E090E0DF91CF911F9157
:100310000F91FF90EF900895F62E0B8D10E00F5F78
:100320001F4F0F731127E02E8C8D8E110CC00FB64E
:1003300007FCFACFE889F989808185FFF5CFCE01E6
:100340000E944301F1CFEB8DEC0FFD2FF11DE35A1D
:10035000FF4FF0829FB7F8940B8FEA89FB89808169
:100360008062CFCFCF93DF93EC01888D8823B9F0E3
:10037000AA89BB89E889F9898C9185FD03C08081B0
:1003800086FD0DC00FB607FCF7CF8C9185FFF2CF2D
:10039000808185FFEDCFCE010E944301E9CFDF913F
:1003A000CF910895833081F028F4813099F0823024
:1003B000A9F008958730A9F08830C9F08430B1F4ED
:1003C000809180008F7D03C0809180008F77809323
:1003D0008000089584B58F7784BD089584B58F7D9E
:1003E000FBCF8091B0008F778093B000089580910B
:1003F000B0008F7DF9CF1F93CF93DF93282F30E08C
:10040000F901EE58FF4F8491F901E255FF4FD49165
:10041000F901E656FF4FC491CC23A9F0162F8111A4
:100420000E94D201EC2FF0E0EE0FFF1FE057FF4FCC
:10043000A591B4918FB7F894EC91111108C0D095A3
:10044000DE23DC938FBFDF91CF911F910895DE2BC8
:10045000F8CFCF93DF9390E0FC01E255FF4F24915A
:1004600086569F4FFC0184918823C9F090E0880F45
:10047000991FFC01E859FF4FA591B491FC01E05789
:10048000FF4FC591D49161110DC09FB7F8948C9125
:10049000209582238C938881282328839FBFDF9116
:1004A000CF910895623051F49FB7F8943C91822F18
:1004B000809583238C93E8812E2BEFCF8FB7F89410
:1004C000EC912E2B2C938FBFEACF3FB7F8948091FD
:1004D000A1029091A202A091A302B091A40226B51C
:1004E000A89B05C02F3F19F00196A11DB11D3FBF6C
:1004F000BA2FA92F982F8827BC01CD01620F711D3B
:10050000811D911D42E0660F771F881F991F4A9534
:10051000D1F708958F929F92AF92BF92CF92DF92C0
:10052000EF92FF924B015C010E9465026B017C011E
:100530000E9465026C197D098E099F09683E73400F
:1005400081059105A8F321E0821A9108A108B1085C
:1005500088EEC80E83E0D81EE11CF11C81149104C2
:10056000A104B10429F7FF90EF90DF90CF90BF90E6
:10057000AF909F908F900895CF92DF92EF92FF926D
:100580000F931F93CF93DF93CDB7DEB7C054D14005
:100590000FB6F894DEBF0FBECDBF2FB7F894809191
:1005A000B5029091B602A091B702B091B8022FBFE8
:1005B000409196035091970360919803709199032D
:1005C0008C019D01041B150B260B370BB901A801EB
:1005D000403D57406105710590F480919E03C05CD9
:1005E000DE4F0FB6F894DEBF0FBECDBFDF91CF91C7
:1005F0001F910F91FF90EF90DF90CF90089580931F
:10060000960390939703A0939803B0939903109245
:1006100091031092900310928F0310928E03109208
:100620008D0362E0809192030E94290261E070E0F4
:1006300080E090E00E948A0261E0809192030E9433
:10064000290260E0809192030E94FB018091930354
:100650008551823020F58BE291E10197F1F762E05C
:10066000809192030E94290280919F0390E0823042
:10067000910538F0880F991F880F991F05970197EA
:10068000F1F7F89480E00E948D006F3F7F4F8F4F0D
:100690009F4F61F410929E03789480E0A0CF64E1B4
:1006A00070E080E090E00E948A02D9CF81E00E9451
:1006B0008D006F3F7F4F8F4F9F4F61F38E010F5F14
:1006C0001F4F6E018FEBC81A8EEFD80A780180E0B9
:1006D0000E948D00F701608371838283938381E0A0
:1006E0000E948D00F7016483758386839783F8E009
:1006F000EF0EF11CEC14FD0451F7789430E020E08B
:10070000F801C080D180E280F38044815581668108
:100710007781FFEFCF16DF06EF06FF0631F04F3F80
:100720008FEF58076807780719F410929E03B5CF2A
:10073000F90183E0F595E7958A95E1F7E357FC4FDA
:100740008081880FC416D506E606F70610F180836F
:100750002F5F3F4F085F1F4F2832310589F64091C8
:10076000910320918D0380918E03280F3327331F2F
:1007700080918F03280F311D80919003820F932F5A
:10078000911D99274817190681F681E080939E03F1
:1007900026CF8160DCCF2091A7023091A8022817D4
:1007A000390771F49091A5028091A602981741F043
:1007B000E091A502F0E0E05AFD4F808190E00895BD
:1007C0008FEF9FEF08950895EF92FF920F931F937D
:1007D000CF93DF93DC015C96ED90FC905D97E11484
:1007E000F10479F481E090E013969C938E93129734
:1007F00090E080E0DF91CF911F910F91FF90EF90FB
:1008000008955196ED91FC91529750968C91509786
:10081000982F90950FB75E962C915E97122F1270BD
:1008200021FD6095F8942081112319F1282B208354
:10083000E7012197F1F728E0462F50E0308160FF73
:100840001AC0382B3083E7012197F1F7BA0175956B
:100850006795215089F7112381F080818923808356
:100860000FBF5C968D919C910197F1F781E090E02C
:10087000C1CF2923DCCF3923E5CF9081892BEFCF5E
:100880002091A7023091A8022817390771F48091AE
:10089000A6022091A50290E0805C9F4F821B9109E7
:1008A00060E470E00E948911089590E080E008956E
:1008B0002091A7023091A80228173907B9F4909126
:1008C000A5028091A602981789F0E091A502F0E0B8
:1008D000E05AFD4F80812091A50230E02F5F3F4F0D
:1008E0002F7333272093A50290E008958FEF9FEF99
:1008F0000895089590E080E00895CF93DF93EC0190
:1009000060E08E810E94FB0161E08E810E94FB010C
:1009100060E08E810E94FB018BE891E00197F1F786
:10092000DF91CF910895CF92DF92EF92FF920F93D4
:100930001F93CF93DF936C017C0187E0E80EF11CDD
:10094000D0E0C0E0062F10E0B8010C2E02C0759573
:1009500067950A94E2F76170F70181917F010E9427
:10096000FB012196C430D10579F7C601DF91CF9103
:100970001F910F91FF90EF90DF90CF900C947D042A
:10098000CF92DF92EF92FF920F931F93CF93DF935B
:10099000EC01F62E642F8C810E94FB018D818F3F2C
:1009A00019F060E00E94FB010F2D10E08F8584FF9D
:1009B00025C06E0187E0C80ED11CF12CE12CB801D6
:1009C0000E2C02C0759567950A94E2F76170F601E6
:1009D00081916F010E94FB01FFEFEF1AFF0A88E08F
:1009E000E816F10461F7CE01DF91CF911F910F91CD
:1009F000FF90EF90DF90CF900C947D04B80184E0DD
:100A0000759567958A95E1F7CE010E9493046F2D45
:100A1000CE01DF91CF911F910F91FF90EF90DF906A
:100A2000CF900C94930440E0682F86E593E00C94FB
:100A3000C00481E00E9413058BE39FE10197F1F769
:100A40000895CF93DF93613029F09091650398600A
:100A5000909365036093690310926A0390E4909306
:100A60006B0380936C03805C80936D0361E08091E5
:100A70005A030E94290280915B038F3F19F061E0C5
:100A80000E94290261E080915C030E942902C6E570
:100A9000D3E09E01265533408091650384FD0BC051
:100AA00084E090E021962817390744F461E08E81B4
:100AB0000E942902EECF88E090E0F4CF8BE39DE026
:100AC0000197F1F760E080915A030E94FB0160E01A
:100AD00080915C030E94FB0180915B038F3F19F0C2
:100AE00060E00E94FB018091650384FD34C063E0F7
:100AF00086E593E00E949304CBE4D6E4CE0101970F
:100B0000F1F763E086E593E00E9493042197F1F703
:100B100063E086E593E00E94930483E592E0019709
:100B2000F1F762E086E593E00E949304809165030B
:100B300080620E94130584E0809366038CE00E942B
:100B400013050E94190582E08093670386E0DF9118
:100B5000CF910C94130580620E9413058BE496E4F8
:100B60000197F1F78091650380620E94130583E588
:100B700092E00197F1F78091650380620E9413056E
:100B8000D5CF90916903891710F08FEF890FE82F67
:100B9000F0E0EA5AFC4F848980680C94130541E028
:100BA0000E94C00481E090E00895FB0101900020C4
:100BB000E9F73197AF01461B570BDC01ED91FC9132
:100BC0000280F381E02D09948F929F92AF92BF92A1
:100BD0000F931F93CF93DF93CDB7DEB7A1970FB6D7
:100BE000F894DEBF0FBECDBF19A2423008F44AE030
:100BF0008E010F5D1F4F842E912CB12CA12CA501CD
:100C000094010E94150FE62FB901CA01EA3004F5DC
:100C1000E05DD801EE938D01232B242B252B79F752
:100C200090E080E0109729F0BD0186E593E00E94F6
:100C3000D505A1960FB6F894DEBF0FBECDBFDF91EC
:100C4000CF911F910F91BF90AF909F908F9008957B
:100C5000E95CDFCFCF92DF92EF92FF926C01990FA8
:100C6000EE08FF08F7FE16C041E06DE286E593E06E
:100C70000E94C00466277727CB016C197D098E0975
:100C80009F094AE00E94E4050196FF90EF90DF90F3
:100C9000CF9008954AE0C701B601FF90EF90DF9032
:100CA000CF900C94E4054F925F926F927F928F9257
:100CB0009F92AF92BF92CF92DF92EF92FF920F93EB
:100CC0001F93CF936B017C01742EAC019B010E949A
:100CD000841160E371E0811126C046015701E89458
:100CE000B7F82FEF3FEF4FE75FE7C501B4010E9470
:100CF000841181110CC02FEF3FEF4FE75FE7C50173
:100D0000B4010E94B30F64E371E0181664F02FEF92
:100D10003FEF4FE75FE4C701B6010E9412111816BA
:100D2000ACF468E371E086E593E0CF911F910F91F9
:100D3000FF90EF90DF90CF90BF90AF909F908F90FB
:100D40007F906F905F904F900C94D5052FEF3FEF01
:100D50004FE75FECC701B6010E94B30F87FDE1CFFB
:100D600020E030E0A901C701B6010E94B30F10E0F6
:100D700000E087FF0CC041E06DE286E593E00E9451
:100D8000C004F7FAF094F7F8F09401E010E0C0E046
:100D900060E070E080E09FE37C1641F020E030E00E
:100DA00040E251E40E94B80FCF5FF6CFA701960151
:100DB0000E94470F4B015C010E9431102B013C0146
:100DC0004AE00E94E405080F191FCC23C9F1C301B2
:100DD000B2010E9460109B01AC01C501B4010E94E8
:100DE000460F4B015C0141E06EE286E593E00E9414
:100DF000C0040F5F1F4FC15018F120E030E040E207
:100E000051E4C501B4010E9417112B013C010E945D
:100E100031104B01B12CA12C4AE0C501B4010E9454
:100E2000E405080F191FC501B4010E9460109B0161
:100E3000AC01C301B2010E94460F4B015C01DBCF44
:100E4000C801CF911F910F91FF90EF90DF90CF904D
:100E5000BF90AF909F908F907F906F905F904F90DA
:100E600008956CE371E00C94D5050F931F93CF9315
:100E7000DF93EC01E881F9810190F081E02D6AE1D6
:100E800009958C01CE010E943107800F911FDF91DF
:100E9000CF911F910F9108950F931F93CF93DF93DD
:100EA000EC010E94D5058C01CE010E943107800F14
:100EB000911FDF91CF911F910F9108950C94D5054B
:100EC0006FE371E08EE693E00E945E0769E471E0F3
:100ED0008EE693E00E944C0761E671E08EE693E0B7
:100EE0000E944C0761E771E089EB92E00E944C0799
:100EF0008EE693E00E94350789EB92E00E94350769
:100F00008EE693E00C9431076FE371E08EE693E098
:100F10000E945E0769E471E08EE693E00E944C0750
:100F200063E871E08EE693E00E944C0763E871E0AD
:100F300089EB92E00E945E078EE693E00E943507FF
:100F400089EB92E00E9435078EE693E00C9431071E
:100F50006FE371E08EE693E00E945E0769E471E062
:100F60008EE693E00E944C0767E971E08EE693E01D
:100F70000E944C0767E971E089EB92E00E944C0700
:100F80008EE693E00E94350789EB92E00E943507D8
:100F90008EE693E00C9431071F920F920FB60F92DA
:100FA00011242F933F934F935F936F937F938F936E
:100FB0009F93AF93BF93EF93FF9389EB92E00E94CF
:100FC0004301FF91EF91BF91AF919F918F917F91DD
:100FD0006F915F914F913F912F910F900FBE0F90A6
:100FE0001F9018951F920F920FB60F9211242F93F6
:100FF0008F939F93EF93FF93E091C902F091CA0200
:101000008081E091CF02F091D00282FD1BC09081DF
:101010008091D2028F5F8F732091D302821741F0AB
:10102000E091D202F0E0E754FD4F958F8093D20219
:10103000FF91EF919F918F912F910F900FBE0F9085
:101040001F9018958081F4CF1F920F920FB60F92C8
:1010500011242F933F938F939F93AF93BF938091CE
:10106000B5029091B602A091B702B091B80230914A
:10107000A00223E0230F2D3758F50196A11DB11DC5
:101080002093A0028093B5029093B602A093B7027A
:10109000B093B8028091A1029091A202A091A30204
:1010A000B091A4020196A11DB11D8093A10290935D
:1010B000A202A093A302B093A402BF91AF919F910B
:1010C0008F913F912F910F900FBE0F901F90189509
:1010D00026E8230F0296A11DB11DD2CF1F920F92B9
:1010E0000FB60F9211242F933F934F935F936F93FB
:1010F0007F938F939F93AF93BF93EF93FF93E09171
:10110000A702F091A802309749F0A685B78585859A
:10111000968D91FF14C09C918923A1F4FF91EF91CA
:10112000BF91AF919F918F917F916F915F914F91FF
:101130003F912F910F900FBE0F901F9018959C918B
:10114000892361F7A389B4899C9185898095892336
:101150008C93868997890197F1F7608D718DA685AB
:10116000B785558538E020E0CB010197F1F7822F54
:1011700090E095958795282F4C91452309F020689C
:10118000315091F7868D81FD20958091A60290E0E7
:1011900001968F7399273091A502381799F0A09185
:1011A000A602B0E0A05ABD4F2C938093A602828D78
:1011B000938D0197F1F7A389B4898C919589892B37
:1011C0008C93ACCF868D8160868FF1CFCF92DF92EA
:1011D000EF92FF920F931F93E82FF92F05C0015054
:1011E00011092109310961F1908196239417B9F30E
:1011F00005C0015011092109310911F1908196238F
:101200009413F7CFC12CD12CE12CF12C0AC08FEF15
:10121000C81AD80AE80AF80A0C151D052E053F055C
:1012200079F080818623841791F36C2D7D2D8E2D8E
:101230009F2D1F910F91FF90EF90DF90CF90089519
:1012400060E070E080E090E01F910F91FF90EF90E0
:10125000DF90CF9008951092BC021092BB0288EEEE
:1012600093E0A0E0B0E08093BD029093BE02A09313
:10127000BF02B093C00224E031E03093BA02209361
:10128000B90225EC30E03093C6022093C50224EC6D
:1012900030E03093C8022093C70220EC30E0309356
:1012A000CA022093C90221EC30E03093CC02209393
:1012B000CB0222EC30E03093CE022093CD0226EC1C
:1012C00030E03093D0022093CF021092D2021092DD
:1012D000D3021092D4021092D502109292032BE006
:1012E00020939303EEEAF0E0E491E0939403EAE9BB
:1012F000F0E0E491E093950340E85EE360E070E0A5
:1013000040939A0350939B0360939C0370939D03B7
:101310001092710310927003809372039093730381
:10132000A0937403B093750382E291E090936F03EE
:1013300080936E03109285031092840310928703AA
:1013400010928603109289031092880310928B03E7
:1013500010928A0360918C036E7F6D7F60938C0383
:101360006695617081E0682783E00E94FB0161E07F
:1013700083E00E942902E1EBF0E0E491E0937E0338
:10138000EDE9F0E0E491F0E0EE0FFF1FE057FF4FD2
:10139000859194919093800380937F0360E082E035
:1013A0000E94290280918C0381FD04C061E082E0EB
:1013B0000E94FB0182E080937A03E0EBF0E0E4918D
:1013C000E0937B03ECE9F0E0E491F0E0EE0FFF1F27
:1013D000EA57FF4F8591949190937D0380937C030E
:1013E000109259031092580386E191E090935703AD
:1013F000809356038CE080935A038FEF80935B03B6
:101400008BE080935C0388E080935D0387E08093AA
:101410005E0386E080935F0385E080936003109213
:10142000610310926203109263031092640310929E
:10143000650361E080E10C942105789484B58260B5
:1014400084BD84B5816084BD85B5826085BD85B568
:10145000816085BD80916E00816080936E001092E6
:101460008100809181008260809381008091810061
:1014700081608093810080918000816080938000F2
:101480008091B10084608093B1008091B000816050
:101490008093B00080917A00846080937A0080917C
:1014A0007A00826080937A0080917A0081608093D4
:1014B0007A0080917A00806880937A001092C1004F
:1014C00064E084E10E94210562E0809192030E9421
:1014D00029022FB7F8948091B5029091B602A0919D
:1014E000B702B091B8022FBF805D9740A109B10942
:1014F0008093960390939703A0939803B0939903D6
:1015000087E380939F0310928903109288031092BF
:1015100087031092860310928503109284038DE94D
:1015200091E090938B0380938A0390917A03963194
:1015300008F047C02DEB30E03093850320938403FF
:101540002BE931E030938703209386032CE231E0CE
:1015500030938903209388032091680084E09830B9
:1015600048F031E09E3008F430E081E001C0880F9F
:101570003A95EAF7822B809368002DE630E09830A8
:1015800050F02BE630E09E3030F02CE630E0963123
:1015900010F030E020E03093820320938103292F64
:1015A00030E0983008F008C181E001C0880F9A95BA
:1015B000EAF78093830380918A0390918B030197CC
:1015C000F1F78091880390918903892B49F1E0918B
:1015D000A702F091A80283E0EE36F80709F13097F0
:1015E00039F0A389B4899C918589809589238C934E
:1015F00080918C038E7F80938C031092A6021092B0
:10160000A5028EE693E09093A8028093A702E09152
:101610008103F0918203808190918303892B8083E1
:10162000E091C902F091CA0282E08083E091C50294
:10163000F091C6021082E091C702F091C8028FECCF
:1016400080831092D102E091CD02F091CE0286E02B
:101650008083E091CB02F091CC0280818061808315
:10166000E091CB02F091CC02808188608083E09190
:10167000CB02F091CC02808180688083E091CB0224
:10168000F091CC0280818F7D808360E081E00E94B8
:10169000290260E089E00E94290260E08EE00E9459
:1016A000290261E08AE00E94290260E08AE00E944B
:1016B000290261E08DE00E94290261E084E00E943D
:1016C000290260E08DE00E94290260E084E00E942F
:1016D000290281E00E94C10568EA71E086E593E095
:1016E0000E945E0782E00E94C1056BEB71E086E517
:1016F00093E00E945E0783E00E94C10567EC71E001
:1017000086E593E00E945E0768EE73E080E090E07B
:101710000E948A020E94190533E7232E30E0332EFF
:10172000C3E0D0E043E2A42EB12C44244A9453E019
:10173000552E612C712C60E0862E60E0962EF10112
:101740008491EFEAF0E01491EBE9F0E0F490FF20EF
:1017500009F43FC081110E94D201EF2DF0E0EE0F9D
:10176000FF1FEA57FF4FA591B4918C91182389F17F
:1017700080E00E94C1056FEC71E086E593E00E9475
:101780005E0768EE73E080E090E00E948A020E94AB
:1017900019050E94BC02882351F0809193038B307D
:1017A00030F08D30E0F08551823008F44DC060E0BB
:1017B00070E080EC9FE72FC09E3040F42850310944
:1017C00081E001C0880F2A95EAF7F3CE2E50310947
:1017D000F7CF80E00E94C10561EE71E0CECF60914D
:1017E0008E0370E090E080E00E9462102DEC3CECF3
:1017F0004CEC5DE30E9417116B017C0160918D033D
:1018000070E090E080E00E9462109B01AC01C70193
:10181000B6010E94470F6093B1027093B2028093A9
:10182000B3029093B4020E94BC02882341F08091DD
:1018300093038C3009F466C1C8F48B3081F160E009
:1018400070E080EC9FE753C060918D0370918E0330
:1018500076276727762790E080E00E9460102DECC5
:101860003CEC4CEC5DE30E941711D5CF85518230E2
:1018700030F710918F03612F70E0762F662766276F
:101880007F7780919003682B90E080E00E94601049
:101890002DEC3CEC4CEC5DE30E9417114FC16091C4
:1018A0008F0370E090E080E00E9460106B017C018B
:1018B0001091900317FF0AC0AC019B0160E070E03B
:1018C00080E89FEB0E94460F6B017C011F70612F27
:1018D00070E090E080E00E9462102DEC3CEC4CEC5B
:1018E0005DE30E941711A70196010E94470F6093C4
:1018F000AD027093AE028093AF029093B00280E08D
:101900000E94C10563EF71E086E593E00E945E07E7
:101910006091AD027091AE028091AF029091B002E1
:1019200042E00E9453066AEF71E086E593E00E9470
:101930005E0781E00E94C1056DEF71E086E593E0EE
:101940000E945E076091B1027091B2028091B30271
:101950009091B40242E00E94530664E072E086E592
:1019600093E00E945E0768EE73E080E090E00E94E2
:101970008A0260E08AE00E94FB01CE010197F1F744
:1019800061E08AE00E94FB01C5010197F1F760E088
:101990008AE00E94FB01E7EBF0E06491E3EAF0E00B
:1019A0008491E82FF0E0EE0FFF1FEA57FF4F85917B
:1019B000949100E412E42FE030E0462F0E94E60804
:1019C000611571058105910529F06F5F7F4F8F4F7C
:1019D0009F4F9F700E94621026E933E44BE85CE35E
:1019E0000E9417110E942A10DB0124E630E00E94B9
:1019F0009D11A30192010E94F60E3093AC02209338
:101A0000AB02F0E4F0937C0080917A0080648093D4
:101A10007A0080917A0086FDFCCFA09178008091B9
:101A20007900B82F24E630E00E949D11A3019201B5
:101A30000E94F60EC9013093AA022093A9022091B8
:101A4000AB023091AC02223431050CF47BC08535F9
:101A500091050CF003C10E94190580E00E94C105A8
:101A600067E072E086E593E00E945E078091AB023A
:101A70009091AC020E942A0664E172E086E593E050
:101A80000E945E0781E00E94C10566E172E086E582
:101A900093E00E945E078091A9029091AA020E94A1
:101AA0002A0664E172E086E593E00E945E0782E028
:101AB0000E94C10566E272E086E593E00E945E073F
:101AC00065E372E086E593E00E945E0783E00E9492
:101AD000C10568E372E086E593E00E945E0766E474
:101AE00072E086E593E00E945E0760E084E00E9479
:101AF000FB0161E08DE00E94FB010E94A8070E94AB
:101B000084079AC010918F03612F70E090E080E00D
:101B10000E9460106B017C01609190036F7070E017
:101B200090E080E00E9462102DEC3CEC4CEC5DE318
:101B30000E941711A70196010E94470F17FFD7CEE9
:101B40009058D5CE2134310509F47CC086359105F5
:101B50000CF4D7C00E94190580E00E94C10567E01F
:101B600072E086E593E00E945E078091AB0290915F
:101B7000AC020E942A0664E172E086E593E00E94CE
:101B80005E0781E00E94C10566E172E086E593E0B0
:101B90000E945E078091A9029091AA020E942A06E3
:101BA00064E172E086E593E00E945E0782E00E94B5
:101BB000C10566E272E086E593E00E945E0766E496
:101BC00072E086E593E00E945E0783E00E94C10513
:101BD00068E372E086E593E00E945E0765E372E0E9
:101BE00086E593E00E945E0761E084E00E94FB01CD
:101BF00060E08DE00E94FB010E9460076FE371E0EE
:101C00008EE693E00E945E0769E471E08EE693E061
:101C10000E944C076AE472E08EE693E00E944C0753
:101C20008EE693E00E94350789EB92E00E9435072B
:101C30008EE693E00E94310768EE73E080E090E06A
:101C40000E948A028114910409F479CD0E942F0127
:101C5000882309F474CD0E94000071CD853591056B
:101C600089F30E94190580E00E94C10567E072E0D7
:101C700086E593E00E945E078091AB029091AC02F2
:101C80000E942A0664E172E086E593E00E945E0706
:101C900081E00E94C10566E172E086E593E00E9462
:101CA0005E078091A9029091AA020E942A0664E12F
:101CB00072E086E593E00E945E0782E00E94C10523
:101CC00066E272E086E593E00E945E0766E472E0F9
:101CD00086E593E00E945E0783E00E94C10568E309
:101CE00072E086E593E00E945E0766E472E086E5B6
:101CF00093E00E945E0760E084E00E94FB0160E0E8
:101D0000F9CE8535910509F49DCF0E94190580E033
:101D10000E94C10567E072E086E593E00E945E07DD
:101D20008091AB029091AC020E942A0664E172E0BD
:101D300086E593E00E945E0781E00E94C10566E1AE
:101D400072E086E593E00E945E078091A90290917F
:101D5000AA020E942A0664E172E086E593E00E94EE
:101D60005E0782E00E94C10566E272E086E593E0CC
:101D70000E945E0765E372E086E593E00E945E07DD
:101D800083E00E94C10568E372E086E593E00E946B
:101D90005E0765E372E086E593E00E945E0761E01E
:101DA00084E00E94FB0161E08DE00E94FB010E9443
:101DB0006007A5CE82E291E090936F0380936E035B
:101DC0008091A7029091A8028E56934071F4E09101
:101DD0008103F09182039081809183038095892310
:101DE00080831092A8021092A7020895052E97FBF7
:101DF0001EF400940E940D0F57FD07D00E94150F8E
:101E000007FC03D04EF40C940D0F5095409530957F
:101E100021953F4F4F4F5F4F089590958095709556
:101E200061957F4F8F4F9F4F0895A1E21A2EAA1BF5
:101E3000BB1BFD010DC0AA1FBB1FEE1FFF1FA2177A
:101E4000B307E407F50720F0A21BB30BE40BF50B77
:101E5000661F771F881F991F1A9469F76095709500
:101E6000809590959B01AC01BD01CF010895A29F83
:101E7000B001B39FC001A39F700D811D1124911D5E
:101E8000B29F700D811D1124911D08955058BB27DC
:101E9000AA270E945E0F0C94D8100E94CA1038F036
:101EA0000E94D11020F039F49F3F19F426F40C94CD
:101EB000C7100EF4E095E7FB0C94C110E92F0E94C7
:101EC000E91058F3BA17620773078407950720F0E3
:101ED00079F4A6F50C940B110EF4E0950B2EBA2FA5
:101EE000A02D0B01B90190010C01CA01A001112420
:101EF000FF27591B99F0593F50F4503E68F11A16CC
:101F0000F040A22F232F342F4427585FF3CF46955C
:101F100037952795A795F0405395C9F77EF41F167E
:101F2000BA0B620B730B840BBAF09150A1F0FF0F48
:101F3000BB1F661F771F881FC2F70EC0BA0F621F34
:101F4000731F841F48F4879577956795B795F79524
:101F50009E3F08F0B0CF9395880F08F09927EE0FB9
:101F60009795879508950E949D1008F481E0089543
:101F70000E94CC0F0C94D8100E94D11058F00E94EF
:101F8000CA1040F029F45F3F29F00C94C1105111A0
:101F90000C940C110C94C7100E94E91068F399235B
:101FA000B1F3552391F3951B550BBB27AA27621755
:101FB0007307840738F09F5F5F4F220F331F441F62
:101FC000AA1FA9F335D00E2E3AF0E0E832D0915096
:101FD0005040E695001CCAF72BD0FE2F29D0660F83
:101FE000771F881FBB1F261737074807AB07B0E8C6
:101FF00009F0BB0B802DBF01FF2793585F4F3AF0CC
:102000009E3F510578F00C94C1100C940C115F3F69
:10201000E4F3983ED4F3869577956795B795F79551
:102020009F5FC9F7880F911D9695879597F9089539
:10203000E1E0660F771F881FBB1F621773078407D5
:10204000BA0720F0621B730B840BBA0BEE1F88F7E4
:10205000E09508950E9431106894B1110C940C1110
:1020600008950E94F11088F09F5798F0B92F992792
:10207000B751B0F0E1F0660F771F881F991F1AF073
:10208000BA95C9F714C0B13091F00E940B11B1E0BC
:1020900008950C940B11672F782F8827B85F39F0BB
:1020A000B93FCCF3869577956795B395D9F73EF40C
:1020B00090958095709561957F4F8F4F9F4F0895B4
:1020C000E89409C097FB3EF49095809570956195D2
:1020D0007F4F8F4F9F4F9923A9F0F92F96E9BB2788
:1020E0009395F695879577956795B795F111F8CF04
:1020F000FAF4BB0F11F460FF1BC06F5F7F4F8F4F6F
:102100009F4F16C0882311F096E911C0772321F064
:102110009EE8872F762F05C0662371F096E8862FFC
:1021200070E060E02AF09A95660F771F881FDAF753
:10213000880F9695879597F90895990F0008550F80
:10214000AA0BE0E8FEEF16161706E807F907C0F03D
:1021500012161306E407F50798F0621B730B840B45
:10216000950B39F40A2661F0232B242B252B21F41F
:1021700008950A2609F4A140A6958FEF811D811DBF
:10218000089597F99F6780E870E060E008959FEFF9
:1021900080EC089500240A941616170618060906FE
:1021A000089500240A9412161306140605060895CD
:1021B000092E0394000C11F4882352F0BB0F40F455
:1021C000BF2B11F460FF04C06F5F7F4F8F4F9F4F95
:1021D000089557FD9058440F551F59F05F3F71F017
:1021E0004795880F97FB991F61F09F3F79F087957E
:1021F0000895121613061406551FF2CF4695F1DF07
:1022000008C0161617061806991FF1CF8695710596
:10221000610508940895E894BB2766277727CB01CA
:1022200097F908950E949D1008F48FEF08950E9479
:102230002A110C94D8100E94CA1038F00E94D110B4
:1022400020F0952311F00C94C1100C94C7101124A8
:102250000C940C110E94E91070F3959FC1F3950F37
:1022600050E0551F629FF001729FBB27F00DB11D1A
:10227000639FAA27F00DB11DAA1F649F6627B00DAA
:10228000A11D661F829F2227B00DA11D621F739F93
:10229000B00DA11D621F839FA00D611D221F749FA1
:1022A0003327A00D611D231F849F600D211D822FE8
:1022B000762F6A2F11249F5750409AF0F1F088230F
:1022C0004AF0EE0FFF1FBB1F661F771F881F91503C
:1022D0005040A9F79E3F510580F00C94C1100C941A
:1022E0000C115F3FE4F3983ED4F38695779567959C
:1022F000B795F795E7959F5FC1F7FE2B880F911D66
:102300009695879597F908950E949D10880B990BD3
:10231000089597FB072E16F4009407D077FD09D097
:102320000E94A41107FC05D03EF4909581959F4F23
:102330000895709561957F4F08950E94370FB7FFFC
:102340000895821B930B0895AA1BBB1B51E107C084
:10235000AA1FBB1FA617B70710F0A61BB70B881F35
:10236000991F5A95A9F780959095BC01CD010895C4
:10237000EE0FFF1F0590F491E02D099410E0C2E6E6
:10238000D0E004C0FE010E94B8112196C336D107E7
:06239000C9F7F894FFCF2D
:10239600000000006501C500F200B2012301010141
:1023A600150100000000CF05C5007A04790400007D
:1023B6000000E403C5007A04E30340045804CB0399
:1023C6006E616E00696E66006F7666000D0A0041EA
:1023D600542B434D47463D310041542B434D475303
:1023E6003D222B3931787878787878787878782221
:1023F6000074616E6B2070756D70206973206F6E4E
:102406000074616E6B2070756D70206973206F6E3D
:102416002020007761746572696E672070756D7033
:10242600206973206F6E0074616E6B2070756D701D
:10243600206973206F6666004952524947415449E4
:102446004F4E2050524F4A45435400496F54205036
:10245600726F6A6563740057656C636F6D65002003
:10246600476173204973204465746563746564200D
:1024760000204E6F20476173204465746563746560
:1024860064200054656D703A2000432E0048756D37
:10249600693A200025200054616E6B204C657665F4
:1024A6006C3D200025006D6F69737420436F6E7458
:1024B600656E743D2000572070756D7020737461D1
:1024C60074757320004F4E00542070756D70207324
:1024D6007461747573004F4646007761746572695E
:1024E6006E672070756D70206973206F66660000D8
:00000001FF
